{
    "_format": "hh-sol-artifact-1",
    "contractName": "Transactions",
    "sourceName": "contracts/Transaction.sol",
    "abi": [
        {
            "anonymous": false,
            "inputs": [
                {
                    "indexed": false,
                    "internalType": "address",
                    "name": "from",
                    "type": "address"
                },
                {
                    "indexed": false,
                    "internalType": "address",
                    "name": "receiver",
                    "type": "address"
                },
                {
                    "indexed": false,
                    "internalType": "uint256",
                    "name": "amount",
                    "type": "uint256"
                },
                {
                    "indexed": false,
                    "internalType": "string",
                    "name": "message",
                    "type": "string"
                },
                {
                    "indexed": false,
                    "internalType": "uint256",
                    "name": "timestamp",
                    "type": "uint256"
                },
                {
                    "indexed": false,
                    "internalType": "string",
                    "name": "keyword",
                    "type": "string"
                }
            ],
            "name": "Transfer",
            "type": "event"
        },
        {
            "inputs": [
                {
                    "internalType": "address payable",
                    "name": "receiver",
                    "type": "address"
                },
                {
                    "internalType": "uint256",
                    "name": "amount",
                    "type": "uint256"
                },
                {
                    "internalType": "string",
                    "name": "message",
                    "type": "string"
                },
                {
                    "internalType": "string",
                    "name": "keyword",
                    "type": "string"
                }
            ],
            "name": "addtoBlockchain",
            "outputs": [],
            "stateMutability": "nonpayable",
            "type": "function"
        },
        {
            "inputs": [],
            "name": "addtoBlockchain",
            "outputs": [
                {
                    "internalType": "uint256",
                    "name": "",
                    "type": "uint256"
                }
            ],
            "stateMutability": "view",
            "type": "function"
        },
        {
            "inputs": [],
            "name": "getAllTransactions",
            "outputs": [
                {
                    "components": [
                        {
                            "internalType": "address",
                            "name": "sender",
                            "type": "address"
                        },
                        {
                            "internalType": "address",
                            "name": "receiver",
                            "type": "address"
                        },
                        {
                            "internalType": "uint256",
                            "name": "amount",
                            "type": "uint256"
                        },
                        {
                            "internalType": "string",
                            "name": "message",
                            "type": "string"
                        },
                        {
                            "internalType": "uint256",
                            "name": "timestamp",
                            "type": "uint256"
                        },
                        {
                            "internalType": "string",
                            "name": "keyword",
                            "type": "string"
                        }
                    ],
                    "internalType": "struct Transactions.TransferStruct[]",
                    "name": "",
                    "type": "tuple[]"
                }
            ],
            "stateMutability": "view",
            "type": "function"
        },
        {
            "inputs": [],
            "name": "getTransactionCount",
            "outputs": [
                {
                    "internalType": "uint256",
                    "name": "",
                    "type": "uint256"
                }
            ],
            "stateMutability": "view",
            "type": "function"
        }
    ],
    "bytecode": "0x608060405234801561001057600080fd5b50610c3b806100206000396000f3fe608060405234801561001057600080fd5b506004361061004c5760003560e01c80631ab324f51461005157806327506f531461006d5780632e7700f01461008b578063490cc2fe146100a9575b600080fd5b61006b6004803603810190610066919061060f565b6100c7565b005b610075610289565b60405161008291906108e7565b60405180910390f35b6100936104cc565b6040516100a09190610909565b60405180910390f35b6100b16104d5565b6040516100be9190610909565b60405180910390f35b60016000808282546100d991906109eb565b9250508190555060016040518060c001604052803373ffffffffffffffffffffffffffffffffffffffff1681526020018673ffffffffffffffffffffffffffffffffffffffff16815260200185815260200184815260200142815260200183815250908060018154018082558091505060019003906000526020600020906006020160009091909190915060008201518160000160006101000a81548173ffffffffffffffffffffffffffffffffffffffff021916908373ffffffffffffffffffffffffffffffffffffffff16021790555060208201518160010160006101000a81548173ffffffffffffffffffffffffffffffffffffffff021916908373ffffffffffffffffffffffffffffffffffffffff1602179055506040820151816002015560608201518160030190805190602001906102189291906104da565b506080820151816004015560a082015181600501908051906020019061023f9291906104da565b5050507f416cfa4330a4565f45c2fd2dd4826a83a37443aba2ce6f79477c7355afac35fa33858585428660405161027b96959493929190610878565b60405180910390a150505050565b60606001805480602002602001604051908101604052809291908181526020016000905b828210156104c357838290600052602060002090600602016040518060c00160405290816000820160009054906101000a900473ffffffffffffffffffffffffffffffffffffffff1673ffffffffffffffffffffffffffffffffffffffff1673ffffffffffffffffffffffffffffffffffffffff1681526020016001820160009054906101000a900473ffffffffffffffffffffffffffffffffffffffff1673ffffffffffffffffffffffffffffffffffffffff1673ffffffffffffffffffffffffffffffffffffffff1681526020016002820154815260200160038201805461039690610b07565b80601f01602080910402602001604051908101604052809291908181526020018280546103c290610b07565b801561040f5780601f106103e45761010080835404028352916020019161040f565b820191906000526020600020905b8154815290600101906020018083116103f257829003601f168201915b505050505081526020016004820154815260200160058201805461043290610b07565b80601f016020809104026020016040519081016040528092919081815260200182805461045e90610b07565b80156104ab5780601f10610480576101008083540402835291602001916104ab565b820191906000526020600020905b81548152906001019060200180831161048e57829003601f168201915b505050505081525050815260200190600101906102ad565b50505050905090565b60008054905090565b600090565b8280546104e690610b07565b90600052602060002090601f016020900481019282610508576000855561054f565b82601f1061052157805160ff191683800117855561054f565b8280016001018555821561054f579182015b8281111561054e578251825591602001919060010190610533565b5b50905061055c9190610560565b5090565b5b80821115610579576000816000905550600101610561565b5090565b600061059061058b84610955565b610924565b9050828152602081018484840111156105a857600080fd5b6105b3848285610ac5565b509392505050565b6000813590506105ca81610bd7565b92915050565b600082601f8301126105e157600080fd5b81356105f184826020860161057d565b91505092915050565b60008135905061060981610bee565b92915050565b6000806000806080858703121561062557600080fd5b6000610633878288016105bb565b9450506020610644878288016105fa565b935050604085013567ffffffffffffffff81111561066157600080fd5b61066d878288016105d0565b925050606085013567ffffffffffffffff81111561068a57600080fd5b610696878288016105d0565b91505092959194509250565b60006106ae83836107ca565b905092915050565b6106bf81610a8f565b82525050565b6106ce81610a41565b82525050565b6106dd81610a41565b82525050565b60006106ee82610995565b6106f881856109b8565b93508360208202850161070a85610985565b8060005b85811015610746578484038952815161072785826106a2565b9450610732836109ab565b925060208a0199505060018101905061070e565b50829750879550505050505092915050565b6000610763826109a0565b61076d81856109c9565b935061077d818560208601610ad4565b61078681610bc6565b840191505092915050565b600061079c826109a0565b6107a681856109da565b93506107b6818560208601610ad4565b6107bf81610bc6565b840191505092915050565b600060c0830160008301516107e260008601826106c5565b5060208301516107f560208601826106c5565b506040830151610808604086018261085a565b50606083015184820360608601526108208282610758565b9150506080830151610835608086018261085a565b5060a083015184820360a086015261084d8282610758565b9150508091505092915050565b61086381610a85565b82525050565b61087281610a85565b82525050565b600060c08201905061088d60008301896106d4565b61089a60208301886106b6565b6108a76040830187610869565b81810360608301526108b98186610791565b90506108c86080830185610869565b81810360a08301526108da8184610791565b9050979650505050505050565b6000602082019050818103600083015261090181846106e3565b905092915050565b600060208201905061091e6000830184610869565b92915050565b6000604051905081810181811067ffffffffffffffff8211171561094b5761094a610b97565b5b8060405250919050565b600067ffffffffffffffff8211156109705761096f610b97565b5b601f19601f8301169050602081019050919050565b6000819050602082019050919050565b600081519050919050565b600081519050919050565b6000602082019050919050565b600082825260208201905092915050565b600082825260208201905092915050565b600082825260208201905092915050565b60006109f682610a85565b9150610a0183610a85565b9250827fffffffffffffffffffffffffffffffffffffffffffffffffffffffffffffffff03821115610a3657610a35610b39565b5b828201905092915050565b6000610a4c82610a65565b9050919050565b6000610a5e82610a65565b9050919050565b600073ffffffffffffffffffffffffffffffffffffffff82169050919050565b6000819050919050565b6000610a9a82610aa1565b9050919050565b6000610aac82610ab3565b9050919050565b6000610abe82610a65565b9050919050565b82818337600083830152505050565b60005b83811015610af2578082015181840152602081019050610ad7565b83811115610b01576000848401525b50505050565b60006002820490506001821680610b1f57607f821691505b60208210811415610b3357610b32610b68565b5b50919050565b7f4e487b7100000000000000000000000000000000000000000000000000000000600052601160045260246000fd5b7f4e487b7100000000000000000000000000000000000000000000000000000000600052602260045260246000fd5b7f4e487b7100000000000000000000000000000000000000000000000000000000600052604160045260246000fd5b6000601f19601f8301169050919050565b610be081610a53565b8114610beb57600080fd5b50565b610bf781610a85565b8114610c0257600080fd5b5056fea2646970667358221220c8b2382d56f8bb268d14caf888b448424db0b594e23722dff1b727d0c3e71ad464736f6c63430008000033",
    "linkReferences": {},
    "deployedLinkReferences": {}
}